:100000000C94F4060C9413070C9413070C94130728
:100010000C94BC610C9413070C9413070C941307F5
:100020000C9413070C9424620C9413070C94FB613A
:100030000C9413070C9413070C9413070C941307D8
:100040000C945A140C9413070C9413070C94130774
:100050000C94F1130C94BB130C9413070C9413071A
:100060000C9413070C9413070C9413070C941307A8
:100070000C9413070C9413070C9413070C94130798
:100080000C9413070C9413070C941307084AD73BDE
:100090003BCE016E84BCBFFDC12F3D6C74319ABD57
:1000A00056833DDA3D00C77F11BED9E4BB4C3E917B
:1000B0006BAAAABE000000803F0F0180961180FF4E
:1000C000B103012C2DB203012C2DB306012C2D01FF
:1000D0002C2DB40107C003A20284C101C5C2020ACB
:1000E00000C3028A2AC4028AEEC5010E200036012E
:1000F000C83A0105022A040000007F2B040000001A
:100100009F04E010021C07123732292D29252B39B4
:1001100000010310E110031D07062E2C292D2E2EA1
:10012000373F0000021013800A298064000000009D
:10013000003E5B4F5B3E3E6B4F6B3E183C783C187D
:10014000183C7E3C181C577D571C1C5E7F5E1C00B3
:10015000183C1800FFE7C3E7FF0018241800FFE76A
:10016000DBE7FF30483A060E2629792926407F052D
:100170000507407F05253F5A3CE73C5A7F3E1C1C43
:1001800008081C1C3E7F14227F22145F5F005F5F03
:1001900006097F017F006689956A606060606094EF
:1001A000A2FFA29408047E040810207E20100808F4
:1001B0002A1C08081C2A08081E101010100C1E0CFF
:1001C0001E0C30383E3830060E3E0E060000000091
:1001D0000000005F00000007000700147F147F1478
:1001E000242A7F2A122313086462364956205000BD
:1001F00008070300001C2241000041221C002A1CA9
:100200007F1C2A08083E0808008070300008080893
:100210000808000060600020100804023E514945B3
:100220003E00427F400072494949462141494D33D1
:100230001814127F1027454545393C4A4949314138
:10024000211109073649494936464949291E000006
:10025000140000004034000000081422411414145B
:100260001414004122140802015909063E415D5947
:100270004E7C1211127C7F494949363E4141412250
:100280007F4141413E7F494949417F090909013E7A
:10029000414151737F0808087F00417F41002040A1
:1002A000413F017F081422417F404040407F021CB3
:1002B000027F7F0408107F3E4141413E7F090909CA
:1002C000063E4151215E7F09192946264949493296
:1002D00003017F01033F4040403F1F2040201F3F5C
:1002E0004038403F631408146303047804036159E1
:1002F000494D43007F414141020408102000414123
:10030000417F0402010204404040404000030708CE
:100310000020545478407F284444383844444428CA
:10032000384444287F385454541800087E09021871
:10033000A4A49C787F0804047800447D40002040F9
:10034000403D007F1028440000417F40007C04783D
:1003500004787C080404783844444438FC18242485
:100360001818242418FC7C08040408485454542405
:1003700004043F44243C4040207C1C2040201C3C82
:100380004030403C44281028444C9090907C446479
:10039000544C44000836410000007700000041360C
:1003A000080002010204023C2623263C1EA1A16192
:1003B000123A4040207A38545455592155557941C4
:1003C0002154547841215554784020545579400C9B
:1003D0001E5272123955555559395454545939557C
:1003E0005454580000457C410002457D42000145BF
:1003F0007C40F0292429F0F0282528F07C5455452C
:10040000002054547C547C0A097F493249494932BE
:100410003248484832324A4848303A4141217A3AD3
:1004200042402078009DA0A07D39444444393D409D
:1004300040403D3C24FF2424487E4943662B2FFC4A
:100440002F2BFF0929F620C0887E090320545479F8
:10045000410000447D413048484A32384040227AC9
:10046000007A0A0A727D0D19317D2629292F282646
:100470002929292630484D4020380808080808084E
:100480000808382F10C8ACBA2F102834FA00007BA7
:10049000000008142A142222142A1408AA00550065
:1004A000AAAA55AA55AA000000FF00101010FF00CC
:1004B000141414FF001010FF00FF1010F010F014BF
:1004C0001414FC001414F700FF0000FF00FF1414C4
:1004D000F404FC141417101F10101F101F14141410
:1004E0001F00101010F0000000001F101010101F4F
:1004F00010101010F010000000FF1010101010105D
:10050000101010FF10000000FF140000FF00FF009B
:10051000001F10170000FC04F41414171017141413
:10052000F404F40000FF00F714141414141414F766
:1005300000F7141414171410101F101F141414F4BF
:10054000141010F010F000001F101F0000001F1406
:10055000000000FC140000F010F01010FF10FF1459
:100560001414FF141010101F00000000F010FFFF03
:10057000FFFFFFF0F0F0F0F0FFFFFF0000000000D1
:10058000FFFF0F0F0F0F0F38444438447C2A2A3ED8
:10059000147E02020606027E027E02635549416312
:1005A0003844443C04407E201E2006027E0202990C
:1005B000A5E7A5991C2A492A1C4C7201724C304AA5
:1005C0004D4D303048784830BC625A463D3E49492E
:1005D00049007E0101017E2A2A2A2A2A44445F44D6
:1005E0004440514A444040444A51400000FF010306
:1005F000E080FF000008086B6B08361236243606D0
:100600000F090F06000018180000001010003040FD
:10061000FF0101001F01011E00191D1712003C3CC3
:100620003C3C00000000002532753A253032753A16
:100630002530327520414D002532753A253032750E
:100640003A2530327520504D002532753A2530322A
:10065000753A2530327520414D002532753A2530E6
:1006600032753A2530327520504D0025336C6400C8
:100670002000200025630025336400320025254F2B
:10068000002D2D2D0042504D0025730025303130B6
:100690006C752C2531316C642C2531316C642C2522
:1006A00031316C642C2531752C25336C640D0A00B6
:1006B000665F7772697465313A202564202830209E
:1006C0003D204F4B29200D0A00665F6C7365656BFA
:1006D0003A202564202830203D204F4B29200D0A48
:1006E00000665F6F70656E3A202564202830203DDB
:1006F000204F4B29200D0A00665F6D6F756E743AAE
:10070000202564202830203D204F4B29200D0A0051
:100710004469736B20496E69743A2025642028303F
:10072000203D204F4B29200D0A004D4158333031D8
:10073000303520736574207570202E2E206C657402
:100740007320676F2E200D0A004D41583330313031
:100750003520776173206E6F7420666F756E642E1E
:1007600020506C6561736520636865636B207769F1
:1007700072696E672F706F7765722E200D0A0048C0
:10078000656164696E673A2025372E3166200D0A4F
:10079000006D696E3A2025372E31662025372E31BF
:1007A000662025372E3166206D61783A2025372E58
:1007B00031662025372E31662025372E3166200DF3
:1007C0000A004D61676E65746F6D65746572206DAA
:1007D000676175737320783A25372E316620793A30
:1007E00025372E3166207A3A25372E3166200D0ABC
:1007F00000416363656C65726174696F6E20672781
:100800007320783A25372E316620793A25372E31F4
:1008100066207A3A25372E3166200D0A00783A2074
:10082000252D372E33666D20793A20252D372E332E
:1008300066205061207A3A20252D372E33660D0A26
:1008400000413A20252D372E33666D20503A202561
:100850002D372E336620506120543A20252D372E17
:1008600033662043200D0A000D0A000D0A00445390
:100870003332333120696E69742073756363657335
:100880007366756C0D0A0069326320696E697420A5
:100890007375636365737366756C0D0A004C43442E
:1008A0002053454D3A25326400636F756E743A25C6
:1008B00075000D0A00253375000D0A00202D2D004E
:1008C0000D0A0025337500544852454144205354C5
:1008D000415455530D0A000D0A204E494C52544FB5
:1008E0005320312E31200D0A0054656D703A2025B9
:1008F0002D332E316620430D0A00253032753A25FE
:100900003032753A253032750D0A00414D0D0A001E
:100910002532753A253032753A253032750D0A0088
:10092000504D0D0A002532753A253032753A253082
:1009300032750D0A002532752F253032752F25307E
:1009400032750D0A002573005E204E6F72746820A8
:1009500025332E30662064656772656573204561B6
:100960007374205E0D0A000D0A0020202020202034
:1009700020202020207A3A20252D362E31660D0A9F
:10098000005B6D67617573735D202020793A2025C7
:100990002D362E31660D0A004D6167204669656C63
:1009A000642020783A20252D362E31660D0A000D60
:1009B0000A0020202020202020202020207A3A20F9
:1009C000252D342E31660D0A005B6727735D2020CC
:1009D00020202020793A20252D342E31660D0A0062
:1009E000416363656C276E20202020783A20252DF6
:1009F000342E31660D0A000D0A0020202020202010
:100A000020202020207A3A20252D372E30660D0A0E
:100A1000005B6D6465672F735D202020793A202587
:100A20002D372E30660D0A00526F746174696F6E37
:100A3000202020783A20252D372E30660D0A0046DA
:100A400069726D776172652056657273696F6E3A6F
:100A500020302E31320D0A002042617474657279A3
:100A600020566F6C746167653A2025752E257525B3
:100A7000750D0A0020202044533332333120737423
:100A8000617475733A203078253032580D0A00545D
:100A9000656D70657261747572653A20252D342E0E
:100AA000316620430D0A0020202050726573737553
:100AB00072653A20252D372E306650610D0A0020D0
:100AC0002020416C7469747564653A20252D342E9C
:100AD00030666D0D0A00253032643A2530326420CC
:100AE0000D0A0053797374656D2074696D653A0061
:100AF00063616E2774206F70656E2066696C650097
:100B0000202573003E25730025730025640D0A001F
:100B10002533642000556E757365642053746163DA
:100B20006B3A200025640D0A002533642000205311
:100B30007461636B2053697A65733A2000496D6173
:100B400067652073697A653A2025642062792025DB
:100B50006420706978656C73200D0A00696E766197
:100B60006C6964206465707468206F7220636F6DB7
:100B70007072657373696F6E200D0A00426974208C
:100B800044657074683A202564200D0A00706C6119
:100B90006E6573206E6F742031200D0A0048656108
:100BA0006465722073697A653A20256C64200D0AA9
:100BB00000496D616765204F66667365743A20254C
:100BC0006C64200D0A0046696C652073697A653A89
:100BD00020256C64200D0A00696E76616C696420C2
:100BE000626D70200D0A0046696C65206F70656E3D
:100BF000206572726F72200D0A004C6F6164696E1D
:100C00006720696D616765200D0A0062616420706C
:100C10006F736974696F6E200D0A0054696D653ACF
:100C200020253032753A253032753A25303275201C
:100C30000D0A0054696D653A20253032753A253029
:100C400032753A2530327520414D200D0A00546925
:100C50006D653A20253032753A253032753A2530A7
:100C6000327520504D200D0A004453333233315F2A
:100C700054656D703A2025322E32672743200D0AC5
:100C800000446174653A20253032752F2530327565
:100C90002F25303275200D0A006E616E00696E6678
:100CA000006364696E6F70737578585B656667453D
:100CB000464700616E006E66696E69747900CDCC3E
:100CC000CC3D0AD7233C17B7D13877CC2B3295953A
:100CD000E6241FB14F0A000020410000C842004036
:100CE0001C4620BCBE4CCA1B0E5AAEC59D740040AB
:100CF0007A10F35A00A0724E18090010A5D4E8002B
:100D000000E87648170000E40B54020000CA9A3B42
:100D1000000000E1F50500008096980000004042C8
:100D20000F000000A0860100000010270000000056
:100D3000E803000000006400000000000A0000005A
:100D400000000100000000002C76D888DC674F0806
:100D500023DFC1DFAE59E1B1B796E5E3E453C63A0C
:100D6000E651997696E8E6C28426EB898C9B62ED83
:100D7000407C6FFCEFBC9C9F40F2BAA56FA5F4903D
:100D8000055A2AF75C936B6CF9676DC11BFCE0E4B4
:100D90000D47FEF520E6B500D0ED902E030094350A
:100DA00077050080841E080000204E0A000000C85D
:100DB0000C333333330F986E12831141EF8D2114AE
:100DC000893BE65516CFFEE6DB18D1844B381BF77E
:100DD0007C1D901DA4BBE424203284725E2281001D
:100DE000C9F124ECA1E53D2711241FBECFEFD0E4CB
:100DF000DEBFCDBF16E0A0E0B1E0E2ECF6E001E03E
:100E00000BBF02C007900D92AA3FB107D9F712E3BA
:100E1000AAEFB6E001C01D92A53BB107E1F70E9421
:100E2000F84E0C945F830C9400002F923F924F92E7
:100E30005F926F927F928F929F92AF92BF92CF926A
:100E4000DF92EF92FF920F931F93CF93DF93FB01FB
:100E50000DB600820EB60182FC0100800DBE01803D
:100E60000EBEDF91CF911F910F91FF90EF90DF9019
:100E7000CF90BF90AF909F908F907F906F905F903A
:100E80004F903F902F9008957894C201F1010995F9
:100E900080E090E00E944D070895F894FFCFCF9333
:100EA000DF938091D2079091D307A091D407B0919E
:100EB000D5070196A11DB11D8093D2079093D3074A
:100EC000A093D407B093D507C6EDD7E02FEF3FEF3F
:100ED00019C08230F1F13C832B831A821D821E825D
:100EE0001F8218868091D0079091D107C817D90723
:100EF00020F4D093D107C093D0072A9688E0C63754
:100F0000D80721F18D819E81AF81B8850097A10519
:100F1000B10599F38D819E81AF81B8850197A109B3
:100F2000B1098D839E83AF83B8878D819E81AF8108
:100F3000B8850097A105B10501F78A81833049F68C
:100F4000EB81FC8180818F5F8083C5CFDF91CF9162
:100F50000895EB81FC8111821082BDCF08957894B1
:100F6000089580E008950895FC01748363831282DC
:100F700015821682178210868091D0079091D10732
:100F8000E817F90720F4F093D107E093D007CF01D9
:100F90000895DC01ED91FC9111973097A1F01D921D
:100FA0001C927483638312821582168217821086C4
:100FB0008091D0079091D107E817F90720F4F093BA
:100FC000D107E093D0070895DC018C918F5F8C935B
:100FD0008C9118160CF408958091D9079091DA0736
:100FE0008A179B07D9F0E6EDF7E03A968381948162
:100FF0008A179B07D1F714821382128215821682F8
:10100000178210868091D0079091D107E817F907D1
:1010100010F7F093D107E093D0070895E6EDF7E0DD
:10102000EACFDC012C916C9327FF23C04091D007BD
:101030005091D107E6EDF7E06EEF7FEF03C027FF99
:1010400014C03A96838194818A179B07C1F72F5F5A
:101050007483638312821582168217821086E417C6
:10106000F50768F7AF0127FDECCF5093D107409308
:10107000D0070895FC018185682B618782818430C7
:1010800009F0089583816823E1F3148213821282A8
:1010900015821682178210868091D0079091D10711
:1010A000E817F90770F7F093D107E093D007089598
:1010B000A091CE07B091CF0712968C9312971596F8
:1010C0004D935D936D937C9318978091D8078823F7
:1010D000C9F0E6EDF7E03A9682818823E1F7F093D4
:1010E000D107E093D007F093CF07E093CE07CF016D
:1010F000BD010E941507E091CE07F091CF078381D3
:1011000094810895E6EDF7E0EACF0F931F93CF9314
:10111000DF93082FC091CE07D091CF079985182F64
:10112000192389F44F3F8FEF58078FEF68078FEF30
:10113000780799F00B8384E00E94580897FD0DC052
:101140009985102F1923812F809589238987812FD5
:10115000DF91CF911F910F9108957894812FDF91A6
:10116000CF911F910F910895F8940E94850878946B
:101170000895DC018C91181634F481508C9320E092
:1011800030E0C90108954F3F9FEF59079FEF69076E
:101190009FEF790719F42FEF3FEFF3CF81508C9336
:1011A000E091CE07F091CF07B483A38383E00E9440
:1011B00058089C01E6CFF8940E94B90878940895E5
:1011C000AB01BC01F8948091D2079091D307A09114
:1011D000D407B091D507481B590B6A0B7B0B81E0F4
:1011E0000E94580878940895AB01BC01F89481E0FE
:1011F0000E94580878940895DC018091CE07909160
:10120000CF0711969C938E93E091CE07F091CF0774
:10121000B483A38382E00E94580808956091CE07AA
:101220007091CF078091D0079091D1076817790707
:1012300031F09093CF078093CE070E941507089551
:10124000F8940E943A080E940E0978940895F89440
:101250000E9411080E940E0978940895F8940E9443
:10126000E4070E940E0978940895CF93DF9324E455
:1012700037E0832F992787FD9A95482F66ED77E011
:10128000DB01C2E1D6E0EA81FB8175971196FC9300
:10129000EE938E81828BED91FC9111978E819F81CF
:1012A000892F990F990B818BED91FC91119788856E
:1012B000808BED91FC91119788859985892F990FE5
:1012C000990B8787ED91FC911197438BED91FC91E0
:1012D0001197248B1A962A9688E0A637B80799F6B4
:1012E0007093D1076093D0077093CF076093CE07B8
:1012F000CB01BD010E9415077894DF91CF9108952D
:10130000CF93DF93C0E0D0E0E0911007F091110798
:10131000A081B18114962D913C911597CF016DE27A
:10132000F90109952196CC34D10571F7E0911007A8
:10133000F0911107A081B1812D913C91CF0160E026
:1013400071E042E050E0F9010995DF91CF910895F5
:1013500021E02093FA062093FB069093FD068093EC
:10136000FC0681E00895882351F481E08093FA0619
:101370008093FB067093FD066093FC06089580E061
:101380000895DC0120910E0730910F074EEF56E0D3
:10139000FA0102C031961196E217F30770F49081BA
:1013A0008C919817B9F381E08093FA068093FB063D
:1013B0007093FD066093FC0608958C91882399F73D
:1013C00050930F0740930E0780E00895EF92FF922D
:1013D0000F931F93F801E090D207F090D30700918C
:1013E000D4071091D507E61AF70A080B190B261B2C
:1013F000370B480B590BE216F3060407150770F07C
:1014000081E08093FA068093FB06F093FD06E0935B
:10141000FC061F910F91FF90EF90089580E01F91BF
:101420000F91FF90EF900895AF92BF92CF92DF920D
:10143000EF92FF920F931F93DF93CF93CDB7DEB759
:1014400060970FB6F894DEBF0FBECDBF7B018C0155
:10145000611571058105910509F449C05E01089483
:10146000A11CB11C6501C801B7012AE030E040E0D1
:1014700050E00E940D80605DF60161936F01C8012C
:10148000B7012AE030E040E050E00E940D80C90141
:10149000DA017C018D01E114F1040105110519F750
:1014A000AC14BD0498F4E0911007F0911107A081ED
:1014B000B18114962D913C911597CF01F60162915F
:1014C0006F01F9010995AC14BD0468F360960FB67D
:1014D000F894DEBF0FBECDBFCF91DF911F910F916A
:1014E000FF90EF90DF90CF90BF90AF900895E09184
:1014F0001007F0911107A081B18114962D913C91B4
:101500001597CF0160E3F9010995E0CFCF93DF9301
:10151000EC016881662389F0E0911007F0911107D2
:101520002196A081B18114962D913C911597CF0100
:10153000F90109956881662379F7DF91CF910895C4
:101540000E94860AE0911007F0911107A081B181F5
:101550002D913C91CF0160E071E042E050E0F90153
:1015600009950895F894E0910E07F0910F0797E020
:10157000EE30F90728F48193F0930F07E0930E07FC
:1015800078940895E0910E07F0910F0797E0EE3000
:10159000F90728F48193F0930F07E0930E0708955D
:1015A0004F925F926F927F928F929F92AF92BF9273
:1015B000CF92DF92EF92FF920F931F93CF93DF931F
:1015C000909311078093100783E091E00E94A00A96
:1015D00084E091E00E94A00A8FE191E00E94A00ABD
:1015E00083E291E00E94860A86E391E00E94A00ACD
:1015F0008DE491E00E94860A80E691E00E94A00AB4
:1016000084E691E00E94860A87E791E00E94A00AA2
:1016100083E091E00E94A00A1092FB06E091E801AD
:10162000F091E901309709F4C6C038EEA32E31E0FD
:10163000B32E21E0622E712C812C912C9EEF492E2D
:1016400096E0592ECC24DD2481E0E82EF12C012DEA
:10165000112DEC0DFD1D80819181892B09F49AC01B
:101660000E9480098EE791E00E94860AC401B301BE
:101670000E94140A8DE891E00E94860AC801B70111
:101680000E94140A8FE891E00E94860AD501ED912C
:10169000FC91EC0DFD1D0190F081E02D8081918188
:1016A0000E94860A82E991E00E94A00A60EA7FE037
:1016B00080E090E00E94F408D501ED91FC91EC0DE2
:1016C000FD1DC081D18150920F0740920E071092EC
:1016D000FA06EA81FB81309709F00995EE81FF81D6
:1016E0000995EC81FD81309709F009958091FA0602
:1016F000882309F486C084E991E00E94860A6091FB
:1017000080087091810880E090E00E94140A8BEAC2
:1017100091E00E94860A80910E0790910F078E5FDC
:101720009640B9F0B0F0CEEFD6E0A0911007B0919E
:1017300011076991ED91FC9111970480F581E02DDD
:10174000CD01099580910E0790910F07C817D90711
:1017500060F38EEA91E00E94860A8091FC069091E7
:10176000FD060E94860A82EB91E00E94A00AD50144
:10177000ED91FC9182E090E0C80ED91E0894E11C26
:10178000F11C011D111DEC0DFD1D80819181892B26
:1017900009F066CFD5011296ED91FC91139782E086
:1017A00090E0A80EB91E0894611C711C811C911C4C
:1017B000309709F047CF0E94800983E091E00E94B2
:1017C000A00A89EC91E00E94860A8091FB0688239A
:1017D000E9F480EE91E00E94A00A8091FB0690E07F
:1017E000DF91CF911F910F91FF90EF90DF90CF90FD
:1017F000BF90AF909F908F907F906F905F904F9031
:10180000089585EB91E00E94A00AB1CF88ED91E0A8
:101810000E94A00AE2CF8C01109236091092390979
:1018200018C089E399E060E00E94110887E399E01D
:1018300060E070E00E94C907C80165E50E943A08AF
:101840000E940E09789468E873E180E090E00E94BD
:10185000F408F8948091360987FFE3CF86E399E096
:101860000E94E407DECFEF92FF920F931F9381E077
:1018700090E09093810880938008E090D207F090E8
:10188000D3070091D4071091D50764E170E080E0A0
:1018900090E00E94F4088091D2079091D307A09124
:1018A000D407B091D507E816F9060A071B0729F0F7
:1018B0001F910F91FF90EF900895FFCFAF92BF92CD
:1018C000CF92DF92EF92FF920F931F9381E090E00F
:1018D0009093810880938008E090D207F090D3071E
:1018E0000091D4071091D50764E670E080E090E0A5
:1018F0000E94F408A80197012B593F4F4F4F5F4FAB
:1019000084E690E0A0E0B0E0E80EF91E0A1F1B1F7D
:10191000C801B7010EEE11E00E94E609882349F0E4
:101920001F910F91FF90EF90DF90CF90BF90AF90FD
:10193000089582E090E09093810880938008E09081
:10194000D207F090D3070091D4071091D50762E039
:1019500070E080E090E00E94F408A80197012D5FFC
:101960003F4F4F4F5F4F82E090E0A0E0B0E0E80EC5
:10197000F91E0A1F1B1FC801B7010EEE11E00E94DD
:10198000E609882369F683E090E0909381088093CC
:101990008008E090D207F090D3070091D40710910F
:1019A000D50760ED77E080E090E00E94F408A801A0
:1019B00097012F52384F4F4F5F4F80ED97E0A0E0D7
:1019C000B0E0E80EF91E0A1F1B1FC801B7010EEE9A
:1019D00011E00E94E609882309F0A2CF84E090E09C
:1019E0009093810880938008E090D207F090D3070D
:1019F0000091D4071091D50760E27EE480E090E08A
:101A00000E94F408A80197012F5D314B4F4F5F4FA3
:101A100080E29EE4A0E0B0E0E80EF91E0A1F1B1F62
:101A2000C801B7010EEE11E00E94E609882309F013
:101A300077CF85E090E09093810880938008E090D4
:101A4000D207F090D3070091D4071091D50784E610
:101A5000A82EB12CC12CD12CAE0CBF1CC01ED11E87
:101A6000C601B5010E94E00885E690E0A0E0B0E084
:101A7000E80EF91E0A1F1B1FC601B501A801970138
:101A80000EEE11E00E94E6094BCF81E08093120731
:101A90000895109212070895109212070895109257
:101AA0001407109213070895109212070895DF92F9
:101AB000EF92FF920F931F9381E090E09093810843
:101AC000809380088091CE079091CF0765E50E94B2
:101AD0003A088FEF40E25EE460E070E00E94B408F4
:101AE000182F80E0111181E064E572E00E94B309D3
:101AF000882331F01F910F91FF90EF90DF900895B0
:101B0000153509F462C06EE572E00E94B3098823BE
:101B100089F782E090E09093810880938008E091BB
:101B2000CE07F091CF0711868FEF40E25EE460E0D0
:101B300070E00E94B408182F80E0111181E064E584
:101B400072E00E94B3098823A9F6153509F43FC055
:101B50006EE572E00E94B309882361F683E090E0AD
:101B60009093810880938008F894E090D207F090D9
:101B7000D3070091D4071091D50780E040E25EE4DE
:101B800060E070E00E948508D82E7894A801970143
:101B90002E5D314B4F4F5F4F80E29EE4A0E0B0E0FE
:101BA000E80EF91E0A1F1B1FC801B70100E712E06B
:101BB0000E94E609882309F09DCFDD2009F481E029
:101BC0006EE572E00E94B30995CF81E09CCF81E081
:101BD000BFCFEF92FF920F931F93CF93DF9381E0DC
:101BE00090E0909381088093800887E399E040E03B
:101BF00050E060E070E00E94FC088C0120E08091E1
:101C0000370990913809892B09F421E0822F63E884
:101C100072E00E94B309882339F0DF91CF911F91C0
:101C20000F91FF90EF900895012B09F44BC06CE8E1
:101C300072E00E94B309882381F782E090E09093DC
:101C4000810880938008E090D207F090D30700913C
:101C5000D4071091D50783E197E040E25EE460E0AD
:101C600070E00E94FC08EC01A80197012F5D314B48
:101C70004F4F5F4F80E29EE4A0E0B0E0E80EF91E17
:101C80000A1F1B1FC801B70100E712E00E94E60906
:101C9000882319F620E08091130790911407892B6F
:101CA00009F421E0822F63E872E00E94B3098823DF
:101CB00009F0B3CFCF5FDF4F71F06CE872E00E94A4
:101CC000B309ABCF81E06CE872E00E94B3098823CE
:101CD00009F0A3CFB2CF81E0F0CFEF92FF920F9344
:101CE0001F93CF93DF9381E090E0909381088093DE
:101CF0008008E090D207F090D3070091D4071091AC
:101D0000D50782E197E040E25EE460E070E00E9487
:101D1000DB08EC01A80197012F5D314B4F4F5F4F5E
:101D200080E29EE4A0E0B0E0E80EF91E0A1F1B1F4F
:101D3000C801B70100E712E00E94E609882339F0E4
:101D4000DF91CF911F910F91FF90EF900895F8943C
:101D50008091120790E0882379F0892F63EA72E07E
:101D60000E94B309882381F07894DF91CF911F916D
:101D70000F91FF90EF90089591E0892F63EA72E050
:101D80000E94B309882381F7789480E0CF5FDF4F0A
:101D900009F44DC067EB72E00E94B309882381F615
:101DA00082E090E09093810880938008E090D207D1
:101DB000F090D3070091D4071091D50782E197E006
:101DC00040E25EE460E070E00E94DB08EC01A80104
:101DD00097012F5D314B4F4F5F4F80E29EE4A0E0B3
:101DE000B0E0E80EF91E0A1F1B1FC801B70100E78B
:101DF00012E00E94E609882309F0A2CFF8948091AE
:101E0000120790E0882309F491E0892F63EA72E0D9
:101E10000E94B309882309F0A7CF789480E0CF5FB0
:101E2000DF4F39F067EB72E00E94B30989CF81E0A0
:101E3000B1CF81E0F7CFCF93DF9381E090E0909333
:101E400081088093800886E399E040E050E060E0FC
:101E500070E00E94DB08EC01F8948091360990E074
:101E6000882309F491E0892F63EA72E00E94B309A4
:101E7000882321F07894DF91CF910895789480E0C1
:101E8000CD2B69F16CE872E00E94B309882399F7C1
:101E900082E090E0909381088093800889E399E044
:101EA00040E050E060E070E00E94DB08EC01F89454
:101EB0008091390990E0882309F491E0892F63EA41
:101EC00072E00E94B3098823A9F6789480E0CE5F7F
:101ED000DF4F69F06CE872E00E94B309CCCF81E07B
:101EE0006CE872E00E94B309882329F6D1CF81E023
:101EF000F1CF82E197E060E00E942709089582E136
:101F000097E060E00E942709089582E197E060E091
:101F10000E9427090895CF93DF9381E090E090938A
:101F200081088093800882E197E040E050E060E023
:101F300070E00E94DB08EC01F8948091120790E0B9
:101F4000882309F491E0892F63EA72E00E94B309C3
:101F5000882321F07894DF91CF910895789480E0E0
:101F6000CD2BA9F16CE872E00E94B309882399F7A0
:101F700082E090E0909381088093800882E197E06E
:101F80000E942E09F8948091120790E0813041F16F
:101F9000892F63EA72E00E94B3098823D9F6789406
:101FA00083E090E0909381088093800882E197E03D
:101FB00062E00E942709F8948091120790E0823035
:101FC00089F0892F63EA72E00E94B309C3CF81E0F0
:101FD0006CE872E00E94B309882309F0BCCFC8CF37
:101FE00091E0D6CF91E0EDCF0E9469130E940613D5
:101FF0000E9484140E94221308950F931F93FC01E2
:10200000108212821182708767837287618774835E
:102010006383640F751F76836583348723871687F0
:1020200005871F910F9108950F931F93FC01108254
:102030005283418370876783728761877483638368
:10204000640F751F7683658334872387168705871A
:102050001F910F9108954F925F926F927F928F928E
:102060009F92AF92BF92CF92DF92EF92FF920F9327
:102070001F93CF93DF93EC016B017A013801490183
:10208000AB84BC84F8942C0100E010E089819A8133
:10209000009751F101979A838983F6018081EF813E
:1020A000F8858193F887EF838D819E81E817F90782
:1020B00020F08B819C8198878F83A114B10419F043
:1020C000CE01F501099578940F5F1F4F0894E10840
:1020D000F108E114F10481F00894C11CD11CF894BA
:1020E00089819A810097B1F6C201B401A3010E94CF
:1020F000DB08892B59F27894C801DF91CF911F91A9
:102100000F91FF90EF90DF90CF90BF90AF909F9096
:102110008F907F906F905F904F900895BF92CF9275
:10212000DF92EF92FF920F931F93CF93DF93EC0117
:10213000B62E79018A01F8946C0189819A81009701
:10214000A1F4C601B801A7010E94DB089C0197FF1A
:10215000F4CF7894C901DF91CF911F910F91FF9037
:10216000EF90DF90CF90BF90089501979A83898375
:10217000EF81F885B192F887EF838D819E81E81712
:10218000F90720F08B819C8198878F83EB85FC85F4
:10219000309711F0CE010995789420E030E0DACF45
:1021A0004F925F926F927F928F929F92AF92BF9267
:1021B000CF92DF92EF92FF920F931F93CF93DF9313
:1021C000EC014B012A01780189016B847C84F8942D
:1021D0005C01CC24DD246114710419F0CE01F301FB
:1021E000099589819A810097D1F4C501B801A701A9
:1021F0000E94DB08892BA9F37894C601DF91CF9167
:102200001F910F91FF90EF90DF90CF90BF90AF9014
:102210009F908F907F906F905F904F90089501975F
:102220009A838983E985FA858191D4018C93FA8711
:10223000E9878D819E81E817F90760F47894089406
:10224000C11CD11C4C145D04C1F20894811C911C6A
:10225000F894C1CF8B819C819A878987EFCFCF92E9
:10226000DF92EF92FF920F931F93CF93DF93EC01D6
:102270007A018B01F894EB85FC85309709F009957C
:102280006E0189819A81009799F4C601B801A7016E
:102290000E94DB089C0197FFF4CF7894C901DF917D
:1022A000CF911F910F91FF90EF90DF90CF90089505
:1022B00001979A838983E985FA852191FA87E987CD
:1022C0008D819E81E817F90720F08B819C819A8788
:1022D0008987789430E0E2CF1F93DC0117968D91C7
:1022E0009C9118971996ED91FC911A978E179F075C
:1022F00041F111968D919C911297019612969C93A3
:102300008E93119711911A96FC93EE931997159647
:102310008D919C911697E817F90750F4CD0160E074
:1023200070E00E944C13212F30E0C9011F910895E5
:1023300013968D919C9114971A969C938E9319974E
:10234000EDCF11968D919C911297892B19F480E015
:1023500090E0D3CF2DEF3FEFE8CFDC011796ED9162
:10236000FC91189719968D919C911A97E817F90787
:1023700039F111968D919C911297019612969C932A
:102380008E93119761931896FC93EE931797159679
:102390008D919C911697E817F90748F4CD0160E0FC
:1023A00070E00E944C1320E030E0C90108951396BC
:1023B0008D919C91149718969C938E931797EECFBE
:1023C00011968D919C911297892B19F480E090E0E1
:1023D000D4CF2CEF3FEFE9CFFC012381348130874C
:1023E00027833287218785819681821B930B928375
:1023F0008183CF016EEF7FEF0E9425130895FC01CA
:10240000838194819087878392878187128211824A
:10241000CF016EEF7FEF0E94251308950F931F9356
:10242000CF93DF938C014A960E946C11EC0197FDCB
:1024300006C0CE01DF91CF911F910F910895F80151
:1024400082819381A481B581886082839383A483F0
:10245000B5830680F781E02D309759F3C8010296C5
:102460000995CE01DF91CF911F910F9108951F9390
:10247000CF93DF93EC01162F8C859D85892B81F4FA
:102480008A819B81AC81BD8184608A839B83AC837C
:10249000BD83EE81FF81309719F0CE010296099538
:1024A000CE010B96612F0E94AD1197FD04C0DF9104
:1024B000CF911F9108958A819B81AC81BD818068F5
:1024C0008A839B83AC83BD83EE81FF81309779F350
:1024D000CE0102960995DF91CF911F9108950F9338
:1024E0001F938C01F8940E94A71381E0F801828762
:1024F000C8014A960E94EC11C8010B960E94FF1178
:102500000E940E0978941F910F9108950F931F93C5
:102510008C01F8940E94701382E0F801828778940D
:102520001F910F910895CF92DF92EF92FF920F9338
:102530001F937C019B016A0188E993E0F701918375
:10254000808312821382148215821782168211866A
:10255000108681E08287B701675D7F4FC7010B96C8
:1025600040E150E087010E94FD0FB701675C7F4F9B
:10257000C7014A9640E150E096010E9414101F9155
:102580000F91FF90EF90DF90CF9008950F931F93DE
:102590000B960E94D0101F910F9108950F931F93D7
:1025A0000B9600E010E020E030E00E94D0101F9178
:1025B0000F9108950F931F934A960E942B101F911D
:1025C0000F9108950F931F934A9600E010E020E0CA
:1025D00030E00E942B101F910F9108950B960E94DE
:1025E0002F1108950B9640E050E060E070E00E94EB
:1025F0002F1108954A960E948E1008954A9620E061
:1026000030E040E050E00E948E1008950E94B21326
:102610000895709389006093880082E086BB809360
:102620006F00089510926F00089570938900609371
:10263000880008958091880090918900BC0180E015
:1026400090E008950E9450140895CF92DF92FF9277
:102650000F931F93CF93DF938C016B01FC01F080EC
:102660001082F7FE0BC0C6EDD7E001C02A968B8121
:102670009C818017910751F0F7FCF8CFDF91CF9143
:102680001F910F91FF90DF90CF900895F394CE01AA
:10269000B6010E94B407F0CFDC018C9187FF08954A
:1026A0008091D9079091DA078A179B0779F0E6EDB8
:1026B000F7E03A96838194818A179B07D1F78C9132
:1026C0008F5F8C93CF010E94B4070895E6EDF7E089
:1026D000F6CF0895E1ECF0E0808180628083089578
:1026E000FB0161157105B9F08A53994009F008950D
:1026F000808191818093C4009093C5001092C000A6
:1027000088E98093C10062816130A1F0613030F4CA
:102710001092C2000895E8EAF3E0E6CF623031F0AB
:10272000643061F086E08093C200089584E0809375
:10273000C200089582E08093C20008958091C10094
:1027400084608093C10086E08093C20008958A531C
:10275000994009F008951092C0001092C1001092A3
:10276000C20008958AE399E060E070E04AE653E130
:102770000E94931208951F920F920FB60F920BB6FC
:102780000F9211242F933F934F935F936F937F93F7
:102790008F939F93AF93BF93EF93FF938AE399E057
:1027A0000E940E1297FD17C08093C6000E940E096A
:1027B000FF91EF91BF91AF919F918F917F916F9119
:1027C0005F914F913F912F910F900BBE0F900FBED5
:1027D0000F901F9018958091C1008F7D8093C1004C
:1027E000E5CF1F920F920FB60F920BB60F921124E6
:1027F0002F933F934F935F936F937F938F939F9309
:10280000AF93BF93EF93FF939091C000892F8C718A
:1028100039F193FD40C020E030E040E050E092FD0F
:10282000206294FD206480913C0990913D09A09123
:102830003E09B0913F09282B392B4A2B5B2B209363
:102840003C0930933D0940933E0950933F09E09184
:102850004009F0914109309719F08CE399E009950E
:102860006091C6008AE399E00E9437120E940E0927
:10287000FF91EF91BF91AF919F918F917F916F9158
:102880005F914F913F912F910F900BBE0F900FBE14
:102890000F901F90189520E830E040E050E0BFCF47
:1028A00092E094BD95BD83E687BD16BC95BB909321
:1028B0006E0008951F920F920FB60F920BB60F92F3
:1028C00011242F933F934F935F936F937F938F9335
:1028D0009F93AF93BF93EF93FF930E944F070E9484
:1028E0000E09FF91EF91BF91AF919F918F917F91D1
:1028F0006F915F914F913F912F910F900BBE0F9071
:102900000FBE0F901F901895109269001DBA089580
:1029100084B1806B84B980E58CBD2C9A08951092A7
:10292000B9008CE08093B8000895982F84EA8093D2
:10293000BC008091BC0087FFFCCF8091B900887FEC
:10294000883021F0803111F081E008959093BB0030
:1029500084E88093BC008091BC0087FFFCCF9091FD
:10296000B900987F983129F080E0903409F081E037
:10297000089580E00895982F24EA34E844E92093EC
:10298000BC008091BC0087FFFCCF8091B900887F9C
:10299000883011F0803199F79093BB003093BC00E0
:1029A0008091BC0087FFFCCF8091B900887F803286
:1029B00011F0883539F44093BC008091BC0084FD4F
:1029C000FCCFDDCF08950E949514089584E980938B
:1029D000BC008091BC0084FDFCCF08958093BB00B7
:1029E00084E88093BC008091BC0087FFFCCF80917D
:1029F000B90090E0887F883209F091E0892F08952E
:102A000084EC8093BC008091BC0087FFFCCF809158
:102A1000BB00089584E88093BC008091BC0087FFD0
:102A2000FCCF8091BB000895289A2C989EBD0DB4D0
:102A300007FEFDCF8EBD0DB407FEFDCF2C9A089585
:102A4000CF92DF92EF92FF920F931F93CF93DF937A
:102A5000FC01C490CC2009F456C07C010894E11C10
:102A6000F11CDD2497012F5F3F4FF70184912898D7
:102A70002C988EBD0DB407FEFDCF2C9AB9016F5F67
:102A80007F4FF901A4918A2F8F77E9F09B01815044
:102A9000482F50E04D5F5F4FC701840F951F435093
:102AA0005040F9012F5F3F4FE491289A2C98EEBDDA
:102AB0000DB407FEFDCF2C9A2817390791F74F5F09
:102AC0005F4F640F751F7B01A7FF19C07B0108943E
:102AD000E11CF11CFB0184918F3FF1F0082F10E005
:102AE0000115110561F0C0E0D0E064E670E080E01F
:102AF00090E00E94F4082596C017D107B4F3D39450
:102B0000DC1408F4AFCFDF91CF911F910F91FF90AC
:102B1000EF90DF90CF90089560E177E280E090E061
:102B20000E94F408D394DC1408F49CCFECCF84B159
:102B3000836084B92C98299A60E177E280E090E084
:102B40000E94F408299860E177E280E090E00E941A
:102B5000F408299A60E177E280E090E00E94F408AE
:102B600089EB90E00E94201584EF90E00E942015F0
:102B700081E091E00E94201528982C9886E38EBD74
:102B80000DB407FEFDCF2C9A289A2C9880EC8EBDB0
:102B90000DB407FEFDCF2C9A80E88093170780EADA
:102BA000809318070895982F28982C988AE28EBD54
:102BB0000DB407FEFDCF2C9A289A2C981EBC0DB49C
:102BC00007FEFDCF2C9A80911607980F289A2C9813
:102BD0009EBD0DB407FEFDCF2C9A289A2C981EBCE2
:102BE0000DB407FEFDCF2C9A840F289A2C988EBD29
:102BF0000DB407FEFDCF2C9A28982C988BE28EBD41
:102C00000DB407FEFDCF2C9A289A2C981EBC0DB44B
:102C100007FEFDCF2C9A80911507680F289A2C98F3
:102C20006EBD0DB407FEFDCF2C9A289A2C981EBCC1
:102C30000DB407FEFDCF2C9A820F289A2C988EBDDA
:102C40000DB407FEFDCF2C9A28982C988CE28EBDEF
:102C50000DB407FEFDCF2C9A08950F931F93FC012E
:102C60008A0197FD0EC08091170790E0E817F907D9
:102C700044F477FD06C08091180790E06817790743
:102C80001CF01F910F9108954E2F4F5F262F2F5F3D
:102C90008E2F0E94D315289A2C981EBD0DB407FEC6
:102CA000FDCF0EBD0DB407FEFDCF2C9A1F910F91E5
:102CB0000895EF92FF920F931F93782FF42EE22E38
:102CC000409117078417B8F550911807651798F5C4
:102CD00090E08F0D911D242F30E02817390714F450
:102CE000F42EF71A862F90E08E0D911D252F30E0DF
:102CF000281739072CF1472F41504F0D262F21500F
:102D00002E0D872F0E94D315289A2C98EE2091F033
:102D100090E0FF2061F080E01EBD0DB407FEFDCF06
:102D20000EBD0DB407FEFDCF8F5F8F15A8F39F5F1B
:102D30009E1578F32C9A1F910F91FF90EF900895B4
:102D4000E52EE61AD8CFEF92FF920F931F93CF9301
:102D5000DF93782F20911707821708F052C0A091B7
:102D600018076A1708F04DC0FA0185919491182F41
:102D7000EA012296FE01E590F490872F90E0810F02
:102D8000911D30E0281739070CF43BC00E2D862F1B
:102D900090E08E0D911D2A2F30E0281739078CF115
:102DA000472F4150410F262F21502E0D872F0E9473
:102DB000D315289A2C98EE2019F1AE014E5F5F4F83
:102DC00060E01150A12FB0E01F5F1196AA0FBB1F4A
:102DD000112399F09A012A0F3B1FFA0185919491D2
:102DE0009EBD0DB407FEFDCF8EBD0DB407FEFDCF19
:102DF0004E5F5F4F4217530781F76F5F601740F3D5
:102E00002C9ADF91CF911F910F91FF90EF90089531
:102E1000BF92CF92DF92EF92FF920F931F93CF93C7
:102E2000DF93782FFA01C22EB32EF02EE12EEA01A5
:102E300021961491FE01D49020911707821708F073
:102E40005AC040911807641708F055C090E0810FF0
:102E5000911D30E0281739070CF44DC0862F90E003
:102E60008D0D911D242F30E0281739070CF443C035
:102E7000472F4150410F262F21502D0D872F0E94A3
:102E8000D315289A2C98DD20A9F1BE016F5F7F4FE2
:102E9000A0E0B0E0E0E000E01150C12FD0E01F5F03
:102EA0002196112321F1AD019A012770307021156F
:102EB000310521F4FB016F5F7F4FE4918E2F90E08D
:102EC00002C0959587952A95E2F780FF1EC0BEBC8B
:102ED0000DB407FEFDCFCEBC0DB407FEFDCF4F5F96
:102EE0005F4F842F8A1B8117F8F2AC0FBD1F0F5F55
:102EF0000D15B8F22C9ADF91CF911F910F91FF9091
:102F0000EF90DF90CF90BF900895EEBC0DB407FE18
:102F1000FDCFFEBC0DB407FEFDCF4F5F5F4F842F8A
:102F20008A1B811708F4C0CFE0CF982F28982C98DF
:102F300086E38EBD0DB407FEFDCF2C9A913021F1B2
:102F4000913078F4289A2C9880EA8EBD0DB407FE53
:102F5000FDCF2C9A80EA8093170780E880931807AA
:102F60000895923001F1933009F00895289A2C9831
:102F70001EBC0DB407FEFDCF2C9A80E88093170786
:102F800080EA809318070895289A2C9880EC8EBDCB
:102F90000DB407FEFDCF2C9A80E88093170780EAD6
:102FA000809318070895289A2C9880E68EBD0DB45A
:102FB00007FEFDCF2C9A80EA8093170780E8809364
:102FC000180708952F923F924F925F926F927F92CF
:102FD0008F929F92AF92BF92CF92DF92EF92FF9229
:102FE0000F931F93DF93CF93CDB7DEB72C970FB618
:102FF000F894DEBF0FBECDBF6901842E9924482E00
:103000005524662E77249401260D371D3C832B838F
:10301000C201B901A6010E942D16C30188199909A0
:103020009E838D83C2016D817E81A6010E942D1633
:10303000F401E40DF51DF887EF83CF01B301A6017C
:103040000E942D169201281939093A872987C9014A
:10305000B301A6010E942D168114910409F487C0C2
:1030600031E0A32EB12CA818B908C401880F991F0C
:10307000EE27FF27E81BF90BFA83E98381E0282E6E
:10308000312C1C861B8606C022E030E0220E331E47
:10309000A20CB31CB7FC1FC00894810891082981B9
:1030A0003A812E5F3F4F3A832983A20EB31EC4019B
:1030B000860D971D9C838B83F301E819F909FE8324
:1030C000ED839401240D351D38872F83C2018819A3
:1030D00099099A878987EB85FC853196FC87EB8770
:1030E0007F01E40CF51CC7016B817C81A6010E9465
:1030F0002D1682012B853C85021B130BC8016B81A9
:103100007C81A6010E942D16C7016D817E81A601DA
:103110000E942D16C8016D817E81A6010E942D1688
:103120000B851C85060D171D8F819885B801A6019A
:103130000E942D1689859A85B801A6010E942D1638
:1031400083018B859C85081B190B8F819885B8019D
:10315000A6010E942D1689859A85B801A6010E94B4
:103160002D16EB85FC85E815F9050CF48DCF2C9612
:103170000FB6F894DEBF0FBECDBFCF91DF911F9188
:103180000F91FF90EF90DF90CF90BF90AF909F9006
:103190008F907F906F905F904F903F902F90089509
:1031A000CF92DF92EF92FF920F931F93CF93DF9313
:1031B000D82EC62EF42EE22E442311F0222349F4F9
:1031C000DF91CF911F910F91FF90EF90DF90CF9003
:1031D000089521E00E9459166C2D61506E0D8D2DC1
:1031E0004F2D21E00E9459168D2D6C2D41E02E2D82
:1031F0000E945916DA948D2D8F0D6C2D41E02E2DE5
:103200000E945916DDCF3F924F925F926F927F924C
:103210008F929F92AF92BF92CF92DF92EF92FF92E6
:103220000F931F93CF93DF93882E962EE42EF22ECA
:103230002801622F70E0492D50E0AE2DB0E0E82F5C
:10324000F0E033249B01241B350B37FD92C0CD01E8
:103250008E1B9F0B97FD89C08217930774F433244C
:103260003394892D982C882E8F2DFE2CE82ECA01A0
:10327000AF01FC01CB01BD01DC01E81460F48E2D2F
:10328000E82C882E8F2DF92C982ECF01FD01DC0122
:10329000CA01AB01BC016B01C41AD50AD7FC60C0DE
:1032A0009F1408F453C066246A94762CE81408F43A
:1032B00066C05D01AE1ABF0AC501B7FC5EC0EC0175
:1032C000D595C795F82CF394682D05C08F2D8F5F89
:1032D000EF14B0F0F82ECC19DD09D7FFF7CF33206B
:1032E00061F12F2D261B892D41E082010E94591684
:1032F000960CCA0DDB1D6F2D8F2D8F5FEF1450F7CD
:103300002F2D261B332031F5862F692D422F21E0EA
:1033100082010E945916DF91CF911F910F91FF906A
:10332000EF90DF90CF90BF90AF909F908F907F9065
:103330006F905F904F903F9008954F2D461B862FC2
:10334000692D21E082010E945916D2CF51E0652EED
:10335000712CACCF892D41E082010E945916DBCF40
:10336000D094C194D108D3949BCF909581959F4FD1
:1033700073CF309521953F4F6ACF0196A0CF682D2E
:1033800020E0C0CF90938B0980938A0970938409C1
:10339000609383090895882309F481E080938D095F
:1033A0000895909391098093900970938F09609389
:1033B0008E09089580938C0908952F923F924F9221
:1033C0005F926F927F928F929F92AF92BF92CF92B5
:1033D000DF92EF92FF920F931F93DF93CF93CDB7BE
:1033E000DEB72E970FB6F894DEBF0FBECDBF98871D
:1033F0008F837A87698759014801DE2C80911707EE
:1034000090E02F813885281739070CF091C0809102
:10341000180790E0681779070CF08AC08E2D90E0AD
:103420009E838D83880F991F880F991FAD81BE8160
:103430008A0F9B1F820F931F181619060CF078C075
:10344000CD01880F991F880F991F880F991F860F2C
:10345000971F181619060CF06BC0CD8019012C832C
:1034600085E0489FF0011124E45DFE4FFB83EA8371
:103470006624772419822B0128E030E0420E531E87
:103480003F813B8789858C8795E0691609F496C052
:10349000EA81FB81E490FC8429853A853E872D876B
:1034A00020C031E0D31609F464C08091870980FF01
:1034B00058C060911707BB856B1BE9816E1B6D19A6
:1034C0008F2D4D2D2D2D85010E945916FC0C2D851B
:1034D0003E852F5F3F4F3E872D872415350591F0A0
:1034E000E694E0FCDECF8A149B0481F3F1E0DF1662
:1034F00009F456C08C816F2D4D2D2D2D84010E9415
:103500005916E4CF0894611C711C39813C0D398334
:103510000894211C311C8C818C0D8C83AA81BB8169
:103520001196BB83AA83B6E06B16710409F0ACCF89
:103530002E960FB6F894DEBF0FBECDBFCF91DF91B0
:103540001F910F91FF90EF90DF90CF90BF90AF90C1
:103550009F908F907F906F905F904F903F902F90B3
:1035600008958C816F2D4D2D2D2D85010E945916AA
:10357000ADCF8091870980FF1AC06091170770E076
:103580008F819885681B790B66197709AD81BE819B
:103590006A1B7B0B8D859E85A5010E942D1696CFFB
:1035A000C1016D857E85A4010E942D168FCFC101BA
:1035B0006D857E85A5010E942D1688CFEE246BCFE8
:1035C000EF920F931F93482F8A3009F450C08D302B
:1035D00009F449C060918309709184092091900990
:1035E0003091910900918E0910918F0980918A097B
:1035F00090918B09E0908D090E94DD1980918D09D1
:10360000682F70E09B01220F331F260F371F220FF8
:10361000331F40918A0950918B09420F531F5093D9
:103620008B0940938A0980918C098823E1F080916D
:10363000170790E0821B930B84179507A4F4660F7D
:10364000771F660F771F660F771F80918309909110
:103650008409860F971F90938409809383091092A1
:103660008B0910928A091F910F91EF900895209174
:103670008D0930E0220F331F220F331F220F331F1B
:103680008091830990918409820F931F90938409FC
:103690008093830910928B0910928A091F910F91D0
:1036A000EF9008950E94E01A80E090E00895CF9393
:1036B000DF93FC018081882339F0EF010E94E01A3A
:1036C000898121968823D1F7DF91CF910895E091E8
:1036D0001907F0911A07309731F08193F0931A0788
:1036E000E09319070895E0919209F09193093097BA
:1036F00009F009950895CF93DF93EC018881882321
:1037000031F021960E94671B88818823D1F7DF91D1
:10371000CF9108950F931F93CF93DF93EB01009107
:10372000920910919309909393098093920988814B
:10373000882331F021960E94671B88818823D1F766
:103740001093930900939209DF91CF911F910F91EC
:1037500008952F923F924F925F926F927F928F9235
:103760009F92AF92BF92CF92DF92EF92FF920F9310
:103770001F93DF93CF93CDB7DEB764970FB6F8945E
:10378000DEBF0FBECDBF1C018B01D1018C91882300
:1037900009F456C00894211C311C853209F045C03B
:1037A000F1012191203309F467C12D3209F47DC163
:1037B0001C8A1B8A822F80538A3008F06AC1CC246D
:1037C000DD24C601880F991F880F991F880F991F44
:1037D000CC0CDD1CC80ED91EC20ED11C20ED3FEF53
:1037E000C20ED31E2191822F80538A3050F3A22E15
:1037F0001F012C3609F4D3C02C3409F4D0C0AA2000
:10380000F9F0B0E6BA1508F4D3C08A2D8F3409F464
:10381000D4C0803508F0E7C0833409F474C184341F
:1038200009F46BC1823429F18A2D0E94671B1A8B1F
:10383000098B09891A89D1018C91882309F0AACFB3
:1038400064960FB6F894DEBF0FBECDBFCF91DF9167
:103850001F910F91FF90EF90DF90CF90BF90AF90AE
:103860009F908F907F906F905F904F903F902F90A0
:10387000089522E0422E512C612C712CBB89B2FF9D
:10388000A4C0F8013496FA8BE98BD801ED90FD9035
:103890000D911C91843409F41AC188249924C8011B
:1038A000B701A30192010E940D80B62EC801B70195
:1038B000A30192010E940D80C901DA017C018D01F2
:1038C000F9E0FB1530F428E7A21609F466C027E0FA
:1038D000B20EE1E0F0E0EC0FFD1FE80DF91D30E362
:1038E000B30EB0820894811C911C0097A105B1050C
:1038F00021F080E18816910491F69B8993FF0BC01B
:10390000E1E0F0E0EC0FFD1FE80DF91DADE2A08352
:103910000894811C911CBB89B0FDC0C090E2F92EB7
:10392000EB89E1FDC0C054010894A11CB11C8C14AA
:103930009D0470F484018F2D0E94671B0F5F1F4F41
:103940000C151D05C0F3C60188199909A80EB91EEA
:1039500074010894E108F10801E010E00C0F1D1F4C
:103960000E0D1F1D03C00894E108F108D8018C91C9
:103970000E94671B01501040E114F104A1F7AC1440
:10398000BD0408F056CF80E20E94671B0894A11C7A
:10399000B11CAC14BD04B8F34CCF27E299CF8B898E
:1039A0009C8984609C8B8B8BDF01AD901D0127CFA0
:1039B0008A2D80528F3409F02CCF58E0452E512C9F
:1039C000612C712CBB89B2FD5CCF843409F473C0C7
:1039D000F8013296FA8BE98BD8018D919C917C018C
:1039E00000E010E05ACF853509F487C0883509F426
:1039F0007EC0833509F018CFF8013296FA8BE98B37
:103A0000D801AD90BC90F5018081882309F485C070
:103A100020E030E02F5F3F4FF501E20FF31F808180
:103A20008823C1F789010F5F1F4FFB89F1FD7AC021
:103A30002C153D0550F480E20E94671B0F5F1F4F5D
:103A4000C80101978C159D05B0F378010894E11C1D
:103A5000F11CC5010E947B1B0C151D0508F0E9CE69
:103A600080E20E94671B0894E11CF11CC7010197CA
:103A70008C159D05A8F3DDCED10111962C913196C0
:103A800081E090E09C8B8B8B822F80538A3008F4EE
:103A900096CEA22E1F01CC24DD24ABCE80E3F82EDF
:103AA000EB89E1FF40CF540153CF2191A2E0B0E078
:103AB000BC8BAB8B7FCEF8013296FA8BE98BD801A9
:103AC0008D919C917C010027F7FC0095102F17FF2A
:103AD000E4CE10950095F094E094E11CF11C011DDA
:103AE000111DEB89FC89E860FC8BEB8BD6CE30E1B5
:103AF000432E512C612C712CC1CE4AE0442E512C06
:103B0000612C712CBBCE98012E5F3F4F3A8B298BD5
:103B1000D8018C910E94671B8CCE20E030E001E040
:103B200010E083CF7801890194CF2F923F924F927A
:103B30005F926F927F928F929F92AF92BF92CF923D
:103B4000DF92EF92FF920F931F93DF93CF93CDB746
:103B5000DEB764970FB6F894DEBF0FBECDBF1C0171
:103B60008B01F1018491882309F45DC00894211C24
:103B7000311C853209F04CC091012F5F3F4FF1019C
:103B80008491803309F471C18D3209F487C1482FC3
:103B90001C8A1B8A842F80538A3008F073C1CC247E
:103BA000DD24C601880F991F880F991F880F991F60
:103BB000CC0CDD1CC80ED91EC40ED11C80ED9FEFAD
:103BC000C80ED91EF9012F5F3F4F4491842F8053B7
:103BD0008A3038F31901A42E4C3609F4D4C04C3481
:103BE00009F4D1C0AA20F9F0F0E6FA1508F4D7C01C
:103BF0008A2D8F3409F4D8C0803508F0ECC08334A6
:103C000009F47EC1843409F475C1823429F18A2D06
:103C10000E94671B1A8B098B09891A89F10184910B
:103C2000882309F0A3CF64960FB6F894DEBF0FBEC9
:103C3000CDBFCF91DF911F910F91FF90EF90DF905B
:103C4000CF90BF90AF909F908F907F906F905F903C
:103C50004F903F902F900895A2E04A2E512C612C56
:103C6000712CFB89F2FFA8C098012C5F3F4F3A8B63
:103C7000298BF801E080F18002811381843409F4FA
:103C800023C188249924C801B701A30192010E948D
:103C90000D80B62EC801B701A30192010E940D80CC
:103CA000C901DA017C018D0139E03B1530F4E8E708
:103CB000AE1609F466C027E0B20EE1E0F0E0EC0FCA
:103CC000FD1FE80DF91D20E3B20EB0820894811C9F
:103CD000911C0097A105B10521F030E183169104F4
:103CE00091F68B8983FF0BC0E1E0F0E0EC0FFD1F44
:103CF000E80DF91D9DE290830894811C911CEB89CD
:103D0000E0FDC5C0F0E2FF2EFB89F1FDC5C0540106
:103D10000894A11CB11C8C149D0470F484018F2D97
:103D20000E94671B0F5F1F4F0C151D05C0F3C601D6
:103D300088199909A80EB91E74010894E108F108C0
:103D400001E010E00C0F1D1F0E0D1F1D03C0089495
:103D5000E108F108F80180810E94671B01501040C2
:103D6000E114F104A1F7AC14BD0408F055CF80E2D2
:103D70000E94671B0894A11CB11CAC14BD04B8F3CD
:103D80004BCF27E299CFEB89FC89E460FC8BEB8B6E
:103D900019010894211C311CF901A49023CF8A2D0C
:103DA00080528F3409F028CF28E0422E512C612C0C
:103DB000712CFB89F2FD58CF843409F478C0980146
:103DC0002E5F3F4F3A8B298BF801808191817C01D6
:103DD00000E010E056CF853509F48CC0883509F431
:103DE00083C0833509F013CF98012E5F3F4F3A8B84
:103DF000298BF801A080B180F5018081882309F426
:103E000089C020E030E02F5F3F4FF501E20FF31F44
:103E100080818823C1F789010F5F1F4FFB89F1FD66
:103E20007EC02C153D0550F480E20E94671B0F5F99
:103E30001F4FC80101978C159D05B0F378010894B8
:103E4000E11CF11CC5010E947B1B0C151D0508F02F
:103E5000E3CE80E20E94671B0894E11CF11CC701BD
:103E600001978C159D05A8F3D7CEF9012F5F3F4F21
:103E7000449181E090E09C8B8B8B842F80538A301F
:103E800008F48DCE1901A42ECC24DD24A5CEE0E3C8
:103E9000FE2EFB89F1FF3BCF54014ECFF9012F5F7E
:103EA0003F4F4491E2E0F0E0FC8BEB8B73CE980146
:103EB0002E5F3F4F3A8B298BF801808191817C01E5
:103EC0000027F7FC0095102F17FFDBCE109500950B
:103ED000F094E094E11CF11C011D111D2B893C891B
:103EE00028603C8B2B8BCDCEB0E14B2E512C612C1E
:103EF000712CB7CE9AE0492E512C612C712CB1CE89
:103F000098012E5F3F4F3A8B298BF80180810E94E8
:103F1000671B82CE20E030E001E010E07FCF780127
:103F2000890190CF0F931F93DF93CF93CDB7DEB767
:103F300000919209109193098F819885909393092C
:103F4000809392099E01255F3F4F89859A85B9012B
:103F50000E94951D1093930900939209CF91DF91D0
:103F60001F910F910895DF93CF93CDB7DEB78D8169
:103F70009E8190931A07809319079E01275F3F4FF8
:103F80008F819885B9010E94951DE0911907F091E4
:103F90001A07108210921A0710921907CF91DF9119
:103FA0000895DF93CF93CDB7DEB7FE0135968191AB
:103FB0009191BF010E94951DCF91DF9108950F93BC
:103FC0001F93DF93CF93CDB7DEB700919209109185
:103FD00093098F81988590939309809392099E010C
:103FE000255F3F4F89859A85B9010E94A91B1093CF
:103FF000930900939209CF91DF911F910F9108953A
:10400000DF93CF93CDB7DEB78D819E8190931A0752
:10401000809319079E01275F3F4F8F819885B901D3
:104020000E94A91BE0911907F0911A0710821092C3
:104030001A0710921907CF91DF910895DF93CF935C
:10404000CDB7DEB7FE01359681919191BF010E94F7
:10405000A91BCF91DF910895CF92DF92EF92FF924B
:104060000F931F93CF93DF936C01790100D000D0A1
:1040700000D08CEA93E0ADB7BEB712969C938E93B6
:104080001197EDB7FEB743835483658376830E940F
:104090001E208DB79EB706960FB6F8949EBF0FBE32
:1040A0008DBF0230110509F46EC00430110509F40A
:1040B00047C00130110561F08AE00E94671BDF9163
:1040C000CF911F910F91FF90EF90DF90CF900895C7
:1040D0001E141F040CF071C0C0E0D0E003EB13E02D
:1040E00000D000D0EDB7FEB73196ADB7BEB712968F
:1040F0001C930E931197D601AC0FBD1F8C91828338
:1041000013820E941E2021960F900F900F900F9007
:10411000CE15DF052CF380E20E94671BE6018601C5
:104120000E0D1F1D9881892F80528F3508F09EE259
:10413000892F0E94671B2196C017D10799F7BCCF22
:10414000E6010FEB13E089919991A991B99100D003
:1041500000D000D0EDB7FEB7128301838383948330
:10416000A583B6830E941E200894E108F1088DB74C
:104170009EB706960FB6F8949EBF0FBE8DBFE11492
:10418000F10409F799CFE60109EB13E089919991C0
:1041900000D000D0EDB7FEB71283018394838383F0
:1041A0000E941E200894E108F1080F900F900F90D4
:1041B0000F90E114F10451F77FCF80E20E94671B5A
:1041C0007BCF9093C5008093C40088E18093C100A9
:1041D00086E08093C2000895982F8091C00085FFEB
:1041E000FCCF9093C60008958091C00087FFFCCF5C
:1041F0008091C6000895FC019081992351F080912F
:10420000C00085FFFCCF9093C60031969081992322
:10421000B1F708958091C000881F8827881F0895EE
:10422000982F8091C00085FFFCCF9093C60080E05E
:1042300090E008958091D2079091D307A091D40780
:10424000B091D50780939C0990939D09A0939E09F6
:10425000B0939F090895FC01F89480911F079091F5
:1042600020079583848380911B0790911C07A09160
:104270001D07B0911E0780839183A283B383789436
:104280000895CF92DF92EF92FF920F931F936C01EC
:10429000F894E0901F07F090200760911B07709141
:1042A0001C0780911D0790911E077894F6012081CC
:1042B000318142815381621B730B840B950B28EE75
:1042C00033E040E050E00E94BB7F9B01AC01F6016F
:1042D00084819581A0E0B0E0281B390B4A0B5B0B71
:1042E00000E010E02E0D3F1D401F511FB901CA0113
:1042F0001F910F91FF90EF90DF90CF900895FC01F8
:10430000F89480911F079091200720911B0730910E
:104310001C0740911D0750911E0778948081918160
:10432000A281B381281B390B4A0B5B0BB901CA016F
:104330000895F89420911B0730911C0740911D07A8
:1043400050911E077894B901CA010895F89410920B
:104350001B0710921C0710921D0710921E077894DD
:1043600008958091D2079091D307A091D407B0917E
:10437000D50780939C0990939D09A0939E09B093C3
:104380009F09F8942091D2073091D3074091D40728
:104390005091D50780919C0990919D09A0919E090B
:1043A000B0919F0979018A01E81AF90A0A0B1B0BDF
:1043B000E0929809F092990900939A0910939B0949
:1043C00020939C0930939D0940939E0950939F0927
:1043D0007894609198097091990980919A099091C7
:1043E0009B0900911F07109120070F5F1F4F61501D
:1043F00070408040904024E130E040E050E00E9476
:104400000D80020F131F1093200700931F07809148
:104410001F0790912007885E934078F180911B07D9
:1044200090911C07A0911D07B0911E070196A11D38
:10443000B11D80931B0790931C07A0931D07B09399
:104440001E071092200710921F0760911B077091A2
:104450001C0780911D0790911E070E94E27D20E0BD
:1044600030E040E752E40E944E7D6093010E70936D
:10447000020E8093030E9093040E64E170E080E0DE
:1044800090E00E94F4087DCF28E833E14FEF4EBD65
:104490000DB407FEFDCF8EB58F3F79F084E690E036
:1044A00053B153B153B153B153B10197C9F721502F
:1044B000304069F720E030E002C021E030E0C9017F
:1044C00008952A980E944422892B59F42A9A8FEF42
:1044D0008EBD0DB407FEFDCF8EB520E030E0C901E2
:1044E000089521E030E0C9010895FC0128EE33E091
:1044F0004FEF4EBD0DB407FEFDCF8EB58F3F81F45B
:1045000084E690E053B153B153B153B153B1019725
:10451000C9F72150304069F720E030E0C901089523
:104520008E3FD1F79FEF9EBD0DB407FEFDCF8EB538
:1045300080839EBD0DB407FEFDCF8EB581839EBDE9
:104540000DB407FEFDCF8EB582839EBD0DB407FE70
:10455000FDCF8EB583836450704011F03496E3CF65
:104560008FEF8EBD0DB407FEFDCF8EB58FEF8EBDE4
:104570000DB407FEFDCF8EB521E030E0CFCF1F9305
:10458000CF93DF93EC01162F0E944422892BC1F0B8
:104590001EBD0DB407FEFDCF8EB51D3FC1F190E0ED
:1045A00088818EBD0DB407FEFDCF8EB589818EBD8D
:1045B0000DB407FEFDCF8EB5915049F02296F0CF95
:1045C00020E030E0C901DF91CF911F9108958FEF76
:1045D0008EBD0DB407FEFDCF8EB58FEF8EBD0DB431
:1045E00007FEFDCF8EB58FEF8EBD0DB407FEFDCF5C
:1045F0008EB590E08F71853009F091E081E09827C9
:10460000292F30E0C901DF91CF911F91089521E05A
:1046100030E0C901DF91CF911F910895DF92EF92B1
:10462000FF920F931F93D82E7A018B0187FD63C0F1
:104630002A9A8FEF8EBD0DB407FEFDCF8EB50E9476
:104640006122892B09F447C08D2D80648EBD0DB485
:1046500007FEFDCF8EB5812F9927AA27BB278EBDD8
:104660000DB407FEFDCF8EB5C801AA27BB278EBDAE
:104670000DB407FEFDCF8EB5BB27A12F902F8F2D38
:104680008EBD0DB407FEFDCF8EB5EEBC0DB407FE9A
:10469000FDCF8EB5DD20D1F485E98EBD0DB407FECA
:1046A000FDCF8EB58CE0D816F9F09AE02FEF2EBD35
:1046B0000DB407FEFDCF8EB587FF02C09150B9F74C
:1046C0001F910F91FF90EF90DF90089588E0D8162A
:1046D00049F487E8E2CF8FEF1F910F91FF90EF90A1
:1046E000DF90089581E0D9CF8FEF8EBD0DB407FE26
:1046F000FDCF8EB5DACF87E340E050E060E070E0B8
:104700000E940E238230E0F68FE7D82291CF90915D
:10471000C603882329F4892F897F8093C6030895CF
:1047200083E08093C6030895AF92BF92CF92DF9249
:10473000FF920F931F93DF93CF9300D000D0CDB79C
:10474000DEB79091C6038823C9F5E9EFFE2EF92262
:10475000F092C60384B1846A84B983E58CBD8DB5BB
:104760008E7F8DBD2A9A2A9A8FEF8EBD0DB407FEDB
:10477000FDCF8EB58AE09FEF9EBD0DB407FEFDCF45
:104780002EB58150C9F740E050E060E070E00E9433
:104790000E23813039F180E58CBD8DB581608DBDF2
:1047A00010922107F1E0FF2AF092C6032A9A8FEFB8
:1047B0008EBD0DB407FEFDCF8EB505C083E080939E
:1047C000C60343E0F42E8F2D0F900F900F900F90A3
:1047D000CF91DF911F910F91FF90DF90CF90BF900D
:1047E000AF90089588E04AEA51E060E070E00E94EE
:1047F0000E238130A9F56E010894C11CD11CF6016D
:1048000075E0A72EB12CAC0EBD1E9FEF9EBD0DB462
:1048100007FEFDCF8EB58193EA15FB05B9F78B81B5
:10482000813009F0B8CF8C818A3A09F0B4CF08EE14
:1048300013E089EA40E050E060E070E40E940E235B
:10484000882309F447C088EE93E023B123B123B154
:1048500023B123B10197C9F70150104051F79BCF05
:1048600089EA40E050E060E070E00E940E23823070
:10487000D0F0DD24D39408EE13E089EA40E050E064
:1048800060E070E00E940E23882381F088EE93E0C0
:1048900023B123B123B123B123B10197C9F701504B
:1048A000104059F778CF52E0D52EE5CF80E140E0B7
:1048B00052E060E070E00E940E23882309F06BCF85
:1048C00080E58CBD8DB581608DBDD09221078EEFC6
:1048D000F8226ACF8AE340E050E060E070E00E9496
:1048E0000E23882309F057CF9FEF9EBD0DB407FE1E
:1048F000FDCF8EB5F60181936F01EA15FB05A9F78F
:10490000898186FD03C064E0D62EDACF3CE0D32E49
:10491000D7CF0F93CF93DF93EB019091C6038823FA
:1049200029F5892F897F8093C60380FD22C000234B
:1049300031F18091210783FF3BC0013009F442C06F
:1049400082E1BA01A9010E940E23882301F12A9A6B
:104950008FEF8EBD0DB407FEFDCF8EB5002351F055
:1049600001E0802FDF91CF910F91089583E0809334
:10497000C60303E0802FDF91CF910F91089504E0EB
:10498000802FDF91CF910F910895C050DE4FCE015F
:1049900060E072E00E947522892B11F00150A9F7A6
:1049A0008CE040E050E060E070E00E940E23CFCF4A
:1049B000F9E0220F331F441F551FFA95D1F701303C
:1049C00009F0BECF81E1BA01A9010E940E2388231C
:1049D00009F0BDCFCE0160E072E00E94752200E0D8
:1049E000892B09F0B4CF01E0B2CFCF92DF92EF92E2
:1049F000FF920F93CF93DF93EB0169017A019091BE
:104A0000C603882331F5892F897F8093C60380FDF3
:104A100023C0002359F18091210790E083FF3BC020
:104A2000013009F448C086709070892BE1F589E166
:104A3000B701A6010E940E238823E1F02A9A8FEF86
:104A40008EBD0DB407FEFDCF8EB5002331F001E021
:104A500004C083E08093C60303E0802FDF91CF91F1
:104A60000F91FF90EF90DF90CF90089504E0F5CF85
:104A7000C050DE4FCE016CEF0E94BF22892B11F097
:104A80000150B1F780E090E06DEF0E94BF22892BCA
:104A9000A9F601E0D3CFA9E0CC0CDD1CEE1CFF1C75
:104AA000AA95D1F7BDCF402F50E060E070E087E9D4
:104AB0000E940E23BCCF88E1B701A6010E940E23FD
:104AC000882309F0BBCFCE016EEF0E94BF2200E029
:104AD000892B09F0B3CF01E0B1CF0F931F93DF9380
:104AE000CF93CDB7DEB760970FB6F894DEBF0FBE99
:104AF000CDBF8A019091C6038823A9F4892F897FAD
:104B00008093C60380FD12C0613051F16130D8F04E
:104B1000633089F194E02A9A8FEF8EBD0DB407FEC1
:104B2000FDCF8EB504C083E08093C60393E0892F48
:104B300060960FB6F894DEBF0FBECDBFCF91DF9168
:104B40001F910F9108950E946122892B91F02A9A5A
:104B50008FEF8EBD0DB407FEFDCF8EB590E0DBCF9D
:104B600089E040E050E060E070E00E940E2388237E
:104B700069F091E0D0CF80E890E0A0E0B0E0FA01E9
:104B800080839183A283B38390E0C5CFCE01019649
:104B900060E170E00E947522892B59F3898182952A
:104BA0008695869583708130B9F189858295869541
:104BB00086958370288530E0220F331F220F331F24
:104BC000280F311D2F5F3F4F8F8190E083709070D1
:104BD000982F8827990F990F280F391F40E050E030
:104BE0008E818F706B85661F6627661F860F8E5FAE
:104BF0006A856370660F860F90E0099704C0220FE4
:104C0000331F441F551F8A95D2F7F8012083318343
:104C10004283538390E07FCF8A8590E00196398567
:104C200020E0820F931FA0E0B0E02AE0880F991FD8
:104C3000AA1FBB1F2A95D1F7F80180839183A28315
:104C4000B38390E068CFEF92FF920F931F93CF93BF
:104C5000DF93EC017A018B018EEF9FEFAFEFBFEF97
:104C6000E80EF91E0A1F1B1F8E899F89A88DB98D1A
:104C70000297A109B109E816F9060A071B07D8F43B
:104C80002A8130E040E050E0C801B7010E94BB7FBC
:104C90009B01AC018EA19FA1A8A5B9A5280F391F22
:104CA0004A1F5B1FB901CA01DF91CF911F910F917C
:104CB000FF90EF90089520E030E040E050E0F2CF28
:104CC000FB01882381F4A0912207B091230710975C
:104CD00009F01C92309709F01082F0932307E093BB
:104CE000220780E008958BE00895FC01009741F0D1
:104CF0008081882329F0868197818617970711F094
:104D000089E0089581810E94872380FD02C080E0B0
:104D1000089583E008956F927F928F929F92AF9251
:104D2000BF92CF92DF92EF92FF920F931F93CF9398
:104D3000DF93EC014A015B01CAA4DBA4ECA4FDA44F
:104D4000C416D506E606F70649F08C818823B1F42F
:104D500081149104A104B10409F047C080E0DF91FF
:104D6000CF911F910F91FF90EF90DF90CF90BF9068
:104D7000AF909F908F907F906F9008958EE2682EF5
:104D8000712C6C0E7D1E8981B301A701960101E093
:104D90000E94F5248823C9F51C822A8D3B8D4C8DF9
:104DA0005D8D8E8D9F8DA8A1B9A1820F931FA41F29
:104DB000B51FC816D906EA06FB0650F61B8112304D
:104DC00028F4C6CF2A8D3B8D4C8D5D8DC20ED31E2F
:104DD000E41EF51E8981B301A701960101E00E943E
:104DE000F5241150123070F7B3CFBE01625D7F4FD2
:104DF0008981A501940101E00E948924882329F476
:104E00008AA69BA6ACA6BDA6AACF81E0A8CF6F922A
:104E10007F928F929F92AF92BF92CF92DF92EF924A
:104E2000FF920F931F93CF93DF93EC016A017B01F5
:104E3000480159014230510561057105B0F08E8974
:104E40009F89A88DB98D481759076A077B0768F4B1
:104E50008881823009F4B6C0833009F46BC0813098
:104E6000A9F012E081E08C8301C012E0812FDF9174
:104E7000CF911F910F91FF90EF90DF90CF90BF9057
:104E8000AF909F908F907F906F9008953A017694A5
:104E90006794640E751EA301452F5527469560E063
:104EA00070E08E8D9F8DA8A1B9A1480F591F6A1F70
:104EB0007B1FCE010E948B26182F882399F6930121
:104EC0003170A1E0CA22DD24C114D10409F09EC0D2
:104ED000982DFE01E20FF31F96A773010894E11CC1
:104EE000F11C81E08C83A701452F5527469560E092
:104EF00070E08E8D9F8DA8A1B9A1480F591F6A1F20
:104F00007B1FCE010E948B26182F882309F0AACF81
:104F1000A7015170CD2809F483C084E0B694A7940A
:104F2000979487948A95D1F7682DFE01E40FF51FB9
:104F300066A798CFE7E07695679557954795EA95E8
:104F4000D1F78E8D9F8DA8A1B9A1480F591F6A1F57
:104F50007B1FCE010E948B26182F882309F082CF59
:104F6000CC0CDD1CEE1CFF1CCC0CDD1CEE1CFF1C55
:104F7000F601F170BE96BE016E0F7F1FBE97DB017A
:104F800013968C9190E0A0E0B0E0B82FAA27992763
:104F90008827EC0FFD1F80709070A070B07F88296B
:104FA0009929AA29BB2986A7292F3327FB01218309
:104FB0009D014427552722838B2F9927AA27BB279A
:104FC000838350CF452F562F672F77278E8D9F8D48
:104FD000A8A1B9A1480F591F6A1F7B1FCE010E94CB
:104FE0008B26182F882309F03DCFCC0CDD1CEE1C3E
:104FF000FF1CF601F170DE01AE0FBF1F9E968C9272
:105000009E97FD01892D992787A72CCFFE01E20FDE
:10501000F31F86A58F70982D9295907F982B5CCF6B
:10502000FE01E40FF51F66A5607FBB27AB2D9A2D0F
:10503000892D8F70682B66A715CFBF92CF92DF9214
:10504000EF92FF920F931F93CF93DF93EC017A01BE
:105050008B014230510561057105B8F08E899F8939
:10506000A88DB98D481759076A077B0770F48881A6
:10507000823009F4C4C0833009F469C08130B1F0D2
:10508000EE24EA94FE2C870105C041E0E42EF12CC9
:10509000012D112DB701C801DF91CF911F910F9103
:1050A000FF90EF90DF90CF90BF9008956A01D69463
:1050B000C794C40ED51EA601452F5527469560E01E
:1050C00070E08E8D9F8DA8A1B9A1480F591F6A1F4E
:1050D0007B1FCE010E948B26882391F6F601F1708A
:1050E000EC0FFD1FB6A40894C11CD11CA601452FCE
:1050F0005527469560E070E08E8D9F8DA8A1B9A1DF
:10510000480F591F6A1F7B1FCE010E948B268823E0
:1051100009F0B6CF2B2D30E0AFEFB1E0CA22DB2291
:10512000CC0EDD1EF60196A580E0282B392BC70199
:1051300081709070892B09F487C0329522952F7069
:1051400023273F702327790100E010E0A3CFE7E099
:105150007695679557954795EA95D1F78E8D9F8DF2
:10516000A8A1B9A1480F591F6A1F7B1FCE010E9439
:105170008B26882309F084CFEE0CFF1C001F111F23
:10518000EE0CFF1C001F111FF701F170BE969E016F
:105190002E0F3F1FBE97D90112968C9190E0A0E090
:1051A000B0E08C01FF24EE24D90113968C9190E09D
:1051B000A0E0B0E0B82FAA2799278827E82AF92A83
:1051C0000A2B1B2BD90111969C9180E0A0E0B0E046
:1051D000E82AF92A0A2B1B2BEC0FFD1F86A590E06D
:1051E000A0E0B0E0E82AF92A0A2B1B2B8FEF9FEFF3
:1051F000AFEFBFE0E822F9220A231B234BCF452F54
:10520000562F672F77278E8D9F8DA8A1B9A1480FA4
:10521000591F6A1F7B1FCE010E948B26882309F02D
:105220002FCFEE0CFF1C001F111FD701B170FE0124
:10523000EA0FFB1F26A530E097A580E0282B392B2D
:10524000790100E010E026CF790100E010E08FEF57
:105250009FE0A0E0B0E0E822F9220A231B231ACF46
:105260008F929F92AF92BF92CF92DF92EF92FF9276
:105270000F931F93CF93DF936C017B01FC01758328
:105280006483468157816085718541305105610590
:10529000710509F468C0C081D1818E899F89A88D6C
:1052A000B98D481759076A077B0708F05CC041159C
:1052B00051056105710509F43FC08A81082F10E08E
:1052C00002951295107F1027007F1027E016F10637
:1052D00008F483C0AA24BB24A01AB10AE01AF10A78
:1052E0001CC04230510561057105E8F1F601C0812D
:1052F000D1818E899F89A88DB98D481759076A0772
:105300007B0788F597012A0D3B1DC901800F911F6E
:105310008017910708F461C07901CE010E941D2811
:10532000AB01BC014F3FFFEF5F07FFEF6F07FFEFE0
:105330007F07B9F681E018C08881833051F44AA113
:105340005BA16CA17DA1411551056105710509F0B5
:10535000B4CFF60112861386148615868885998542
:10536000E816F90670F082E0DF91CF911F910F915E
:10537000FF90EF90DF90CF90BF90AF909F908F9075
:105380000895C701929582958F7089279F7089270C
:10539000A0E0B0E02AA13BA14CA15DA1820F931F28
:1053A000A41FB51F86879787A08BB18BFFE0EF22E4
:1053B000FF24EE0CFF1CE294F29430EFF322FE2463
:1053C000E322FE248EE290E0E80EF91ECE0DDF1DF2
:1053D000F601D38BC28B80E0C7CFF601428753879B
:1053E00064877587EEEF8E2EEFEF9E2EEFEFAE2ED9
:1053F000EFEFBE2E840E951EA61EB71E8E899F89C6
:10540000A88DB98D0297A109B10988169906AA0637
:10541000BB06B8F020E030E040E050E0C7019295D4
:1054200082958F7089279F708927A0E0B0E0280FB0
:10543000391F4A1F5B1FF60126873787408B518B28
:10544000B5CF2A8130E040E050E0C501B4010E94B0
:10545000BB7F9B01AC018EA19FA1A8A5B9A5280F78
:10546000391F4A1F5B1FDACF4F925F926F927F9274
:105470008F929F92AF92BF92CF92DF92EF92FF9264
:105480000F931F93CF93DF93EC012A013B0141154A
:1054900051056105710509F0A5C08A849B84AC841F
:1054A000BD8481149104A104B10409F047C08E8920
:1054B0009F89A88DB98D11E0812E912CA12CB12C42
:1054C000750164010894C11CD11CE11CF11CC816B3
:1054D000D906EA06FB0660F022E082169104A104D8
:1054E000B10408F47AC0B2E0CB2ED12CE12CF12C1F
:1054F000CE01B701A6010E941D289B01AC016115D8
:1055000071058105910529F12F3F8FEF38078FEF46
:1055100048078FEF580709F44DC021303105410588
:10552000510509F447C0C814D904EA04FB0409F47E
:1055300054C08E899F89A88DB98DC4CF8E899F89CB
:10554000A88DB98D88169906AA06BB0608F0B3CFB8
:10555000B7CFBC2CAD2C9E2C8F2CCE01A601B70151
:105560000FEF1FEF2FEF3FE00E940727882309F07E
:105570005DC0411451046104710409F04DC0BA8644
:10558000AB869C868D868E859F85A889B9898F3F3D
:105590002FEF92072FEFA2072FEFB20749F00197E5
:1055A000A109B1098E879F87A88BB98B81E08D8374
:1055B000A7019601B901CA01DF91CF911F910F9107
:1055C000FF90EF90DF90CF90BF90AF909F908F9023
:1055D0007F906F905F904F90089520E030E040E022
:1055E00050E0E8CF0E941D289B01AC01623071059C
:1055F0008105910560F08E899F89A88DB98D281746
:1056000039074A075B07B0F25301420159CF21E045
:1056100030E040E050E0CECFCE01B301A2018601E0
:1056200097010E940727882309F4A9CF813079F7D1
:105630002FEF3FEF4FEF5FEFBDCF2F923F924F9293
:105640005F926F927F928F929F92AF92BF92CF9212
:10565000DF92EF92FF920F931F93DF93CF93CDB71B
:10566000DEB729970FB6F894DEBF0FBECDBF99877E
:1056700088877A018B01DC0112966D917C911397DA
:105680008D919C910E9475268D83882309F08CC092
:10569000E885F985848187FDB6C0A885B9851A9605
:1056A0002D903D904D905C901D972E143F04400628
:1056B000510608F0ABC081FDA9C0E885F985E680F8
:1056C000F7800085118516821782108611862114B5
:1056D00031044104510409F467C00190F081E02DC8
:1056E000FF83EE838281682E77248824992499E0B1
:1056F000660C771C881C991C9A95D1F7E114F1046B
:105700000105110509F085C0A885B9851E96ED90A3
:10571000FD900D911C915197E114F10401051105C3
:1057200009F45CC0A885B9855296ED92FD920D935F
:105730001C935597E114F1040105110509F0A2C06D
:10574000E885F985A680B780C084D18420E030E068
:1057500040E050E0D601C5019170A070B070009794
:10576000A105B10579F0E885F98586899789A08D2D
:10577000B18D82179307A407B50721F0268B378BCD
:10578000408F518FE885F98582859385A485B585FD
:105790008A159B05AC05BD0538F4A286B386C48680
:1057A000D5868481806284838D8129960FB6F89492
:1057B000DEBF0FBECDBFCF91DF911F910F91FF9044
:1057C000EF90DF90CF90BF90AF909F908F907F90A1
:1057D0006F905F904F903F902F9008958E819F81A2
:1057E00040E050E060E070E00E94342A7B018C01D0
:1057F000613071058105910509F0CDC0E885F98515
:10580000848180688483F2E0FD83CECF1701280174
:1058100054CF570168010894A108B108C108D10804
:10582000C201B1016150704080409040A4019301D9
:105830000E940D8079018A01C601B501A40193017E
:105840000E940D80E216F3060407150708F45CCFEA
:1058500088279927DC0186199709A809B9098A219F
:105860009B21AC21BD21E885F98586839783A0879C
:10587000B187281A390A4A0A5B0AE288F388048940
:10588000158958CF621473048404950408F09EC0EF
:1058900088279927DC0186199709A809B9098983FE
:1058A0009A83AB83BC832618370848085908A88513
:1058B000B9850D90BC91A02DBF83AE835EC08E8153
:1058C0009F81B801A7010E94342A7B018C016115D8
:1058D00071058105910509F477C0FFEFEF16FFEF21
:1058E000FF06FFEF0F07FFEF1F0709F4C8C0E2E054
:1058F000EE16F1040105110508F45EC0A885B9850E
:105900000D90BC91A02DBF83AE8356968D919D9135
:105910000D90BC91A02DE816F9060A071B0708F0A8
:105920004BC0A885B9855296ED92FD920D931C93BC
:1059300055971696AD90BD90CD90DC901997A60C1A
:10594000B71CC81CD91CFD01A682B782C086D186AF
:1059500029813A814B815C81220D331D441D551DE7
:10596000DA01C901860D971DA81DB91D68167906B3
:105970008A069B0698F519012A01E885F985848134
:1059800081FD9DCF8E819F81B801A7010E941D28B6
:105990007B018C01A2CF8FEFE8168FEFF8068FEF17
:1059A00008078FEF180709F46AC0E885F985E686CD
:1059B000F786008B118BB6CEE885F98584818068E7
:1059C0008483F2E0FD83F0CE13012401A885B9851C
:1059D0001696AD90BD90CD90DC901997A20CB31C9B
:1059E000C41CD51CE885F985A682B782C086D186FD
:1059F000D201C1019170A070B0700097A105B105EE
:105A000009F4A4CE808091808EEF9FEFAFEFBFEFBF
:105A1000E80EF91E0A1F1B1FF40186899789A08DC5
:105A2000B18D0297A109B109E816F9060A071B070B
:105A300088F5228130E040E050E0C801B7010E94C3
:105A4000BB7F7B018C01F40186A197A1A0A5B1A524
:105A5000E80EF91E0A1F1B1FE114F10401051105D0
:105A6000C9F0A201910189E0569547953795279590
:105A70008A95D1F72E0D3F1D401F511F6BCEA88573
:105A8000B98514968C911497806814968C93B1E024
:105A9000BD838ACEA885B98514968C9114978068A9
:105AA00014968C93B2E0BD837FCE2F923F925F928B
:105AB0006F927F928F929F92AF92BF92CF92DF921E
:105AC000EF92FF920F931F93CF93DF936C013B01F3
:105AD0005A014901D9011D921C92FC016281738116
